{
  "_format": "hh-sol-artifact-1",
  "contractName": "Factory",
  "sourceName": "contracts/Factory.sol",
  "abi": [
    {
      "anonymous": false,
      "inputs": [
        {
          "indexed": false,
          "internalType": "address",
          "name": "previousAdmin",
          "type": "address"
        },
        {
          "indexed": false,
          "internalType": "address",
          "name": "newAdmin",
          "type": "address"
        }
      ],
      "name": "AdminChanged",
      "type": "event"
    },
    {
      "anonymous": false,
      "inputs": [
        {
          "indexed": true,
          "internalType": "address",
          "name": "beacon",
          "type": "address"
        }
      ],
      "name": "BeaconUpgraded",
      "type": "event"
    },
    {
      "anonymous": false,
      "inputs": [
        {
          "indexed": false,
          "internalType": "address",
          "name": "userAddress",
          "type": "address"
        },
        {
          "indexed": false,
          "internalType": "address payable",
          "name": "relayerAddress",
          "type": "address"
        },
        {
          "indexed": false,
          "internalType": "bytes",
          "name": "functionSignature",
          "type": "bytes"
        }
      ],
      "name": "MetaTransactionExecuted",
      "type": "event"
    },
    {
      "anonymous": false,
      "inputs": [
        {
          "indexed": true,
          "internalType": "address",
          "name": "previousOwner",
          "type": "address"
        },
        {
          "indexed": true,
          "internalType": "address",
          "name": "newOwner",
          "type": "address"
        }
      ],
      "name": "OwnershipTransferred",
      "type": "event"
    },
    {
      "anonymous": false,
      "inputs": [
        {
          "indexed": true,
          "internalType": "bytes32",
          "name": "gameID",
          "type": "bytes32"
        },
        {
          "indexed": true,
          "internalType": "bytes32",
          "name": "questionID",
          "type": "bytes32"
        },
        {
          "indexed": true,
          "internalType": "address",
          "name": "questionAddress",
          "type": "address"
        },
        {
          "indexed": false,
          "internalType": "uint256",
          "name": "questionArrayLength",
          "type": "uint256"
        }
      ],
      "name": "QuestionCreated",
      "type": "event"
    },
    {
      "anonymous": false,
      "inputs": [
        {
          "indexed": true,
          "internalType": "bytes32",
          "name": "id",
          "type": "bytes32"
        },
        {
          "indexed": true,
          "internalType": "address",
          "name": "questionAddress",
          "type": "address"
        }
      ],
      "name": "QuestionTypeAdded",
      "type": "event"
    },
    {
      "anonymous": false,
      "inputs": [
        {
          "indexed": true,
          "internalType": "address",
          "name": "adminAddress",
          "type": "address"
        }
      ],
      "name": "SetAdmin",
      "type": "event"
    },
    {
      "anonymous": false,
      "inputs": [
        {
          "indexed": true,
          "internalType": "address",
          "name": "operatorAddress",
          "type": "address"
        }
      ],
      "name": "SetOperator",
      "type": "event"
    },
    {
      "anonymous": false,
      "inputs": [
        {
          "indexed": true,
          "internalType": "address",
          "name": "implementation",
          "type": "address"
        }
      ],
      "name": "Upgraded",
      "type": "event"
    },
    {
      "inputs": [],
      "name": "ERC712_VERSION",
      "outputs": [
        {
          "internalType": "string",
          "name": "",
          "type": "string"
        }
      ],
      "stateMutability": "view",
      "type": "function"
    },
    {
      "inputs": [
        {
          "internalType": "bytes32",
          "name": "_id",
          "type": "bytes32"
        },
        {
          "internalType": "address",
          "name": "_questionAddress",
          "type": "address"
        }
      ],
      "name": "addQuestionType",
      "outputs": [],
      "stateMutability": "nonpayable",
      "type": "function"
    },
    {
      "inputs": [],
      "name": "adminAddress",
      "outputs": [
        {
          "internalType": "address",
          "name": "",
          "type": "address"
        }
      ],
      "stateMutability": "view",
      "type": "function"
    },
    {
      "inputs": [
        {
          "internalType": "bytes32",
          "name": "questionID",
          "type": "bytes32"
        }
      ],
      "name": "claimBet",
      "outputs": [],
      "stateMutability": "nonpayable",
      "type": "function"
    },
    {
      "inputs": [
        {
          "internalType": "bytes32",
          "name": "gameID",
          "type": "bytes32"
        }
      ],
      "name": "claimGameBets",
      "outputs": [],
      "stateMutability": "nonpayable",
      "type": "function"
    },
    {
      "inputs": [
        {
          "internalType": "bytes32",
          "name": "gameID",
          "type": "bytes32"
        }
      ],
      "name": "claimGameTreasury",
      "outputs": [],
      "stateMutability": "nonpayable",
      "type": "function"
    },
    {
      "inputs": [
        {
          "internalType": "bytes32",
          "name": "_id",
          "type": "bytes32"
        },
        {
          "components": [
            {
              "internalType": "bytes32",
              "name": "gameID",
              "type": "bytes32"
            },
            {
              "internalType": "bytes32",
              "name": "questionID",
              "type": "bytes32"
            },
            {
              "internalType": "bytes",
              "name": "data",
              "type": "bytes"
            }
          ],
          "internalType": "struct Factory.QuestionEncodedData[]",
          "name": "questionData",
          "type": "tuple[]"
        }
      ],
      "name": "deployQuestions",
      "outputs": [],
      "stateMutability": "nonpayable",
      "type": "function"
    },
    {
      "inputs": [
        {
          "internalType": "address",
          "name": "userAddress",
          "type": "address"
        },
        {
          "internalType": "bytes",
          "name": "functionSignature",
          "type": "bytes"
        },
        {
          "internalType": "bytes32",
          "name": "sigR",
          "type": "bytes32"
        },
        {
          "internalType": "bytes32",
          "name": "sigS",
          "type": "bytes32"
        },
        {
          "internalType": "uint8",
          "name": "sigV",
          "type": "uint8"
        }
      ],
      "name": "executeMetaTransaction",
      "outputs": [
        {
          "internalType": "bytes",
          "name": "",
          "type": "bytes"
        }
      ],
      "stateMutability": "payable",
      "type": "function"
    },
    {
      "inputs": [],
      "name": "getChainId",
      "outputs": [
        {
          "internalType": "uint256",
          "name": "",
          "type": "uint256"
        }
      ],
      "stateMutability": "view",
      "type": "function"
    },
    {
      "inputs": [],
      "name": "getDomainSeperator",
      "outputs": [
        {
          "internalType": "bytes32",
          "name": "",
          "type": "bytes32"
        }
      ],
      "stateMutability": "view",
      "type": "function"
    },
    {
      "inputs": [
        {
          "internalType": "bytes32",
          "name": "questionID",
          "type": "bytes32"
        }
      ],
      "name": "getGameQuestionAddress",
      "outputs": [
        {
          "internalType": "address",
          "name": "questionAddress",
          "type": "address"
        }
      ],
      "stateMutability": "view",
      "type": "function"
    },
    {
      "inputs": [
        {
          "internalType": "bytes32",
          "name": "gameID",
          "type": "bytes32"
        }
      ],
      "name": "getGameQuestions",
      "outputs": [
        {
          "internalType": "address[]",
          "name": "",
          "type": "address[]"
        }
      ],
      "stateMutability": "view",
      "type": "function"
    },
    {
      "inputs": [
        {
          "internalType": "address",
          "name": "user",
          "type": "address"
        }
      ],
      "name": "getNonce",
      "outputs": [
        {
          "internalType": "uint256",
          "name": "nonce",
          "type": "uint256"
        }
      ],
      "stateMutability": "view",
      "type": "function"
    },
    {
      "inputs": [
        {
          "internalType": "address",
          "name": "_adminAddress",
          "type": "address"
        },
        {
          "internalType": "address",
          "name": "_operatorAddress",
          "type": "address"
        }
      ],
      "name": "initialize",
      "outputs": [],
      "stateMutability": "nonpayable",
      "type": "function"
    },
    {
      "inputs": [
        {
          "internalType": "bytes32",
          "name": "",
          "type": "bytes32"
        },
        {
          "internalType": "address",
          "name": "",
          "type": "address"
        }
      ],
      "name": "isGameClaimed",
      "outputs": [
        {
          "internalType": "bool",
          "name": "",
          "type": "bool"
        }
      ],
      "stateMutability": "view",
      "type": "function"
    },
    {
      "inputs": [
        {
          "internalType": "bytes32",
          "name": "",
          "type": "bytes32"
        }
      ],
      "name": "isGameTreasuryClaimed",
      "outputs": [
        {
          "internalType": "bool",
          "name": "",
          "type": "bool"
        }
      ],
      "stateMutability": "view",
      "type": "function"
    },
    {
      "inputs": [],
      "name": "operatorAddress",
      "outputs": [
        {
          "internalType": "address",
          "name": "",
          "type": "address"
        }
      ],
      "stateMutability": "view",
      "type": "function"
    },
    {
      "inputs": [],
      "name": "owner",
      "outputs": [
        {
          "internalType": "address",
          "name": "",
          "type": "address"
        }
      ],
      "stateMutability": "view",
      "type": "function"
    },
    {
      "inputs": [
        {
          "internalType": "bytes32",
          "name": "questionID",
          "type": "bytes32"
        },
        {
          "internalType": "bytes",
          "name": "data",
          "type": "bytes"
        }
      ],
      "name": "placeTheBet",
      "outputs": [],
      "stateMutability": "nonpayable",
      "type": "function"
    },
    {
      "inputs": [
        {
          "internalType": "bytes32",
          "name": "",
          "type": "bytes32"
        },
        {
          "internalType": "uint256",
          "name": "",
          "type": "uint256"
        }
      ],
      "name": "questionAddressArray",
      "outputs": [
        {
          "internalType": "address",
          "name": "",
          "type": "address"
        }
      ],
      "stateMutability": "view",
      "type": "function"
    },
    {
      "inputs": [
        {
          "internalType": "bytes32",
          "name": "",
          "type": "bytes32"
        }
      ],
      "name": "questionAddressMap",
      "outputs": [
        {
          "internalType": "address",
          "name": "",
          "type": "address"
        }
      ],
      "stateMutability": "view",
      "type": "function"
    },
    {
      "inputs": [
        {
          "internalType": "bytes32",
          "name": "",
          "type": "bytes32"
        }
      ],
      "name": "questionType",
      "outputs": [
        {
          "internalType": "address",
          "name": "",
          "type": "address"
        }
      ],
      "stateMutability": "view",
      "type": "function"
    },
    {
      "inputs": [],
      "name": "renounceOwnership",
      "outputs": [],
      "stateMutability": "nonpayable",
      "type": "function"
    },
    {
      "inputs": [
        {
          "internalType": "address",
          "name": "_adminAddress",
          "type": "address"
        }
      ],
      "name": "setAdmin",
      "outputs": [],
      "stateMutability": "nonpayable",
      "type": "function"
    },
    {
      "inputs": [
        {
          "internalType": "address",
          "name": "_operatorAddress",
          "type": "address"
        }
      ],
      "name": "setOperator",
      "outputs": [],
      "stateMutability": "nonpayable",
      "type": "function"
    },
    {
      "inputs": [
        {
          "internalType": "address",
          "name": "newOwner",
          "type": "address"
        }
      ],
      "name": "transferOwnership",
      "outputs": [],
      "stateMutability": "nonpayable",
      "type": "function"
    },
    {
      "inputs": [
        {
          "internalType": "address",
          "name": "newImplementation",
          "type": "address"
        }
      ],
      "name": "upgradeTo",
      "outputs": [],
      "stateMutability": "nonpayable",
      "type": "function"
    },
    {
      "inputs": [
        {
          "internalType": "address",
          "name": "newImplementation",
          "type": "address"
        },
        {
          "internalType": "bytes",
          "name": "data",
          "type": "bytes"
        }
      ],
      "name": "upgradeToAndCall",
      "outputs": [],
      "stateMutability": "payable",
      "type": "function"
    }
  ],
  "bytecode": "0x60a06040523060601b60805234801561001757600080fd5b5060805160601c613d0161004b60003960008181610d3601528181610de6015281816111e901526112990152613d016000f3fe6080604052600436106101b75760003560e01c80635512eff3116100ec5780639cc8e7fd1161008a578063d640576311610064578063d6405763146105b4578063e1781b79146105f7578063f2fde38b14610617578063fc6f94681461063757600080fd5b80639cc8e7fd14610554578063b3ab15fb14610574578063b51d16ee1461059457600080fd5b80637ef3e977116100c65780637ef3e977146104ae5780638da5cb5b146104ce5780638e051568146104f95780639b71b54f1461053457600080fd5b80635512eff314610436578063704b6c0214610479578063715018a61461049957600080fd5b806322cd5ea8116101595780633408e470116101335780633408e470146103d05780633659cfe6146103e3578063485cc955146104035780634f1ef2861461042357600080fd5b806322cd5ea81461032d5780632d0335ab1461034d5780632e846e2f1461039057600080fd5b80630f7e5970116101955780630f7e59701461026b578063127effb2146102b4578063184497ab146102e157806320379ee51461030e57600080fd5b806303525a74146101bc57806303e2a99d146102295780630c53c51c1461024b575b600080fd5b3480156101c857600080fd5b506101ff6101d73660046137e7565b609b6020526000908152604090205473ffffffffffffffffffffffffffffffffffffffff1681565b60405173ffffffffffffffffffffffffffffffffffffffff90911681526020015b60405180910390f35b34801561023557600080fd5b506102496102443660046137ff565b610664565b005b61025e61025936600461374e565b610811565b6040516102209190613a82565b34801561027757600080fd5b5061025e6040518060400160405280600181526020017f310000000000000000000000000000000000000000000000000000000000000081525081565b3480156102c057600080fd5b5060a0546101ff9073ffffffffffffffffffffffffffffffffffffffff1681565b3480156102ed57600080fd5b506103016102fc3660046137e7565b610a9d565b6040516102209190613a28565b34801561031a57600080fd5b506098545b604051908152602001610220565b34801561033957600080fd5b506102496103483660046137e7565b610b16565b34801561035957600080fd5b5061031f6103683660046136b6565b73ffffffffffffffffffffffffffffffffffffffff1660009081526099602052604090205490565b34801561039c57600080fd5b506103c06103ab3660046137e7565b609d6020526000908152604090205460ff1681565b6040519015158152602001610220565b3480156103dc57600080fd5b504661031f565b3480156103ef57600080fd5b506102496103fe3660046136b6565b610d1e565b34801561040f57600080fd5b5061024961041e3660046136d0565b610f24565b610249610431366004613702565b6111d1565b34801561044257600080fd5b506101ff6104513660046137e7565b6000908152609b602052604090205473ffffffffffffffffffffffffffffffffffffffff1690565b34801561048557600080fd5b506102496104943660046136b6565b6113c8565b3480156104a557600080fd5b50610249611552565b3480156104ba57600080fd5b506102496104c9366004613821565b6115fb565b3480156104da57600080fd5b5060655473ffffffffffffffffffffffffffffffffffffffff166101ff565b34801561050557600080fd5b506103c06105143660046137ff565b609c60209081526000928352604080842090915290825290205460ff1681565b34801561054057600080fd5b5061024961054f3660046137e7565b611c27565b34801561056057600080fd5b506101ff61056f36600461391e565b611fcb565b34801561058057600080fd5b5061024961058f3660046136b6565b612010565b3480156105a057600080fd5b506102496105af3660046137e7565b61219a565b3480156105c057600080fd5b506101ff6105cf3660046137e7565b609e6020526000908152604090205473ffffffffffffffffffffffffffffffffffffffff1681565b34801561060357600080fd5b506102496106123660046138ef565b61253e565b34801561062357600080fd5b506102496106323660046136b6565b612737565b34801561064357600080fd5b50609f546101ff9073ffffffffffffffffffffffffffffffffffffffff1681565b60a05473ffffffffffffffffffffffffffffffffffffffff16610685612880565b73ffffffffffffffffffffffffffffffffffffffff1614610707576040517f08c379a000000000000000000000000000000000000000000000000000000000815260206004820152600e60248201527f6f70657261746f723a207775743f00000000000000000000000000000000000060448201526064015b60405180910390fd5b6000828152609e602052604090205473ffffffffffffffffffffffffffffffffffffffff1615610793576040517f08c379a000000000000000000000000000000000000000000000000000000000815260206004820152601560248201527f496d706c656d656e746174696f6e20457869737473000000000000000000000060448201526064016106fe565b6000828152609e602052604080822080547fffffffffffffffffffffffff00000000000000000000000000000000000000001673ffffffffffffffffffffffffffffffffffffffff85169081179091559051909184917f5cfa932d45038a24161ea9d51bdf38aab56dbc4c9cd31990b7986159d0086ff39190a35050565b604080516060818101835273ffffffffffffffffffffffffffffffffffffffff88166000818152609960209081529085902054845283015291810186905261085c87828787876128ea565b6108e8576040517f08c379a000000000000000000000000000000000000000000000000000000000815260206004820152602160248201527f5369676e657220616e64207369676e617475726520646f206e6f74206d61746360448201527f680000000000000000000000000000000000000000000000000000000000000060648201526084016106fe565b73ffffffffffffffffffffffffffffffffffffffff8716600090815260996020526040902054610919906001612a33565b73ffffffffffffffffffffffffffffffffffffffff88166000908152609960205260409081902091909155517f5845892132946850460bff5a0083f71031bc5bf9aadcd40f1de79423eac9b10b9061097690899033908a906139ef565b60405180910390a16000803073ffffffffffffffffffffffffffffffffffffffff16888a6040516020016109ab9291906139a5565b604080517fffffffffffffffffffffffffffffffffffffffffffffffffffffffffffffffe0818403018152908290526109e391613989565b6000604051808303816000865af19150503d8060008114610a20576040519150601f19603f3d011682016040523d82523d6000602084013e610a25565b606091505b509150915081610a91576040517f08c379a000000000000000000000000000000000000000000000000000000000815260206004820152601c60248201527f46756e6374696f6e2063616c6c206e6f74207375636365737366756c0000000060448201526064016106fe565b98975050505050505050565b6000818152609a6020908152604091829020805483518184028101840190945280845260609392830182828015610b0a57602002820191906000526020600020905b815473ffffffffffffffffffffffffffffffffffffffff168152600190910190602001808311610adf575b50505050509050919050565b6000610b20612880565b6000838152609b602052604090205490915073ffffffffffffffffffffffffffffffffffffffff1680610baf576040517f08c379a000000000000000000000000000000000000000000000000000000000815260206004820152601760248201527f5175657374696f6e20446f6573206e6f7420657869737400000000000000000060448201526064016106fe565b6040805173ffffffffffffffffffffffffffffffffffffffff84811660248084019190915283518084039091018152604490920183526020820180517bffffffffffffffffffffffffffffffffffffffffffffffffffffffff167f1e83409a00000000000000000000000000000000000000000000000000000000179052915190916000918291851690610c44908590613989565b6000604051808303816000865af19150503d8060008114610c81576040519150601f19603f3d011682016040523d82523d6000602084013e610c86565b606091505b5091509150818015610cb0575080511580610cb0575080806020019051810190610cb091906137c7565b610d16576040517f08c379a000000000000000000000000000000000000000000000000000000000815260206004820152600c60248201527f436c61696d204661696c6564000000000000000000000000000000000000000060448201526064016106fe565b505050505050565b3073ffffffffffffffffffffffffffffffffffffffff7f0000000000000000000000000000000000000000000000000000000000000000161415610de4576040517f08c379a000000000000000000000000000000000000000000000000000000000815260206004820152602c60248201527f46756e6374696f6e206d7573742062652063616c6c6564207468726f7567682060448201527f64656c656761746563616c6c000000000000000000000000000000000000000060648201526084016106fe565b7f000000000000000000000000000000000000000000000000000000000000000073ffffffffffffffffffffffffffffffffffffffff16610e597f360894a13ba1a3210667c828492db98dca3e2076cc3735a920a3ca505d382bbc5473ffffffffffffffffffffffffffffffffffffffff1690565b73ffffffffffffffffffffffffffffffffffffffff1614610efc576040517f08c379a000000000000000000000000000000000000000000000000000000000815260206004820152602c60248201527f46756e6374696f6e206d7573742062652063616c6c6564207468726f7567682060448201527f6163746976652070726f7879000000000000000000000000000000000000000060648201526084016106fe565b610f0581612a46565b60408051600080825260208201909252610f2191839190612ae3565b50565b600054610100900460ff1680610f3d575060005460ff16155b610fc9576040517f08c379a000000000000000000000000000000000000000000000000000000000815260206004820152602e60248201527f496e697469616c697a61626c653a20636f6e747261637420697320616c72656160448201527f647920696e697469616c697a656400000000000000000000000000000000000060648201526084016106fe565b600054610100900460ff1615801561100857600080547fffffffffffffffffffffffffffffffffffffffffffffffffffffffffffff0000166101011790555b611010612d3b565b61104e6040518060400160405280601181526020017f50726564696374696f6e2d4d61726b6574000000000000000000000000000000815250612e58565b73ffffffffffffffffffffffffffffffffffffffff83166110cb576040517f08c379a000000000000000000000000000000000000000000000000000000000815260206004820152601660248201527f43616e6e6f74206265207a65726f20616464726573730000000000000000000060448201526064016106fe565b73ffffffffffffffffffffffffffffffffffffffff8216611148576040517f08c379a000000000000000000000000000000000000000000000000000000000815260206004820152601660248201527f43616e6e6f74206265207a65726f20616464726573730000000000000000000060448201526064016106fe565b609f805473ffffffffffffffffffffffffffffffffffffffff8086167fffffffffffffffffffffffff00000000000000000000000000000000000000009283161790925560a080549285169290911691909117905580156111cc57600080547fffffffffffffffffffffffffffffffffffffffffffffffffffffffffffff00ff1690555b505050565b3073ffffffffffffffffffffffffffffffffffffffff7f0000000000000000000000000000000000000000000000000000000000000000161415611297576040517f08c379a000000000000000000000000000000000000000000000000000000000815260206004820152602c60248201527f46756e6374696f6e206d7573742062652063616c6c6564207468726f7567682060448201527f64656c656761746563616c6c000000000000000000000000000000000000000060648201526084016106fe565b7f000000000000000000000000000000000000000000000000000000000000000073ffffffffffffffffffffffffffffffffffffffff1661130c7f360894a13ba1a3210667c828492db98dca3e2076cc3735a920a3ca505d382bbc5473ffffffffffffffffffffffffffffffffffffffff1690565b73ffffffffffffffffffffffffffffffffffffffff16146113af576040517f08c379a000000000000000000000000000000000000000000000000000000000815260206004820152602c60248201527f46756e6374696f6e206d7573742062652063616c6c6564207468726f7567682060448201527f6163746976652070726f7879000000000000000000000000000000000000000060648201526084016106fe565b6113b882612a46565b6113c482826001612ae3565b5050565b609f5473ffffffffffffffffffffffffffffffffffffffff166113e9612880565b73ffffffffffffffffffffffffffffffffffffffff1614611466576040517f08c379a000000000000000000000000000000000000000000000000000000000815260206004820152600b60248201527f61646d696e3a207775743f00000000000000000000000000000000000000000060448201526064016106fe565b73ffffffffffffffffffffffffffffffffffffffff81166114e3576040517f08c379a000000000000000000000000000000000000000000000000000000000815260206004820152601660248201527f43616e6e6f74206265207a65726f20616464726573730000000000000000000060448201526064016106fe565b609f80547fffffffffffffffffffffffff00000000000000000000000000000000000000001673ffffffffffffffffffffffffffffffffffffffff83169081179091556040517f5a272403b402d892977df56625f4164ccaf70ca3863991c43ecfe76a6905b0a190600090a250565b3361157260655473ffffffffffffffffffffffffffffffffffffffff1690565b73ffffffffffffffffffffffffffffffffffffffff16146115ef576040517f08c379a000000000000000000000000000000000000000000000000000000000815260206004820181905260248201527f4f776e61626c653a2063616c6c6572206973206e6f7420746865206f776e657260448201526064016106fe565b6115f96000612efc565b565b60a05473ffffffffffffffffffffffffffffffffffffffff1661161c612880565b73ffffffffffffffffffffffffffffffffffffffff1614611699576040517f08c379a000000000000000000000000000000000000000000000000000000000815260206004820152600e60248201527f6f70657261746f723a207775743f00000000000000000000000000000000000060448201526064016106fe565b80516000838152609e602052604090205473ffffffffffffffffffffffffffffffffffffffff1680611727576040517f08c379a000000000000000000000000000000000000000000000000000000000815260206004820152601560248201527f537472617465677920446f65736e74204578697374000000000000000000000060448201526064016106fe565b60005b82811015611c2057600073ffffffffffffffffffffffffffffffffffffffff16609b6000868481518110611787577f4e487b7100000000000000000000000000000000000000000000000000000000600052603260045260246000fd5b60209081029190910181015181015182528101919091526040016000205473ffffffffffffffffffffffffffffffffffffffff1614611822576040517f08c379a000000000000000000000000000000000000000000000000000000000815260206004820152601960248201527f5175657374696f6e20616c7265616479206465706c6f7965640000000000000060448201526064016106fe565b600061182d83612f73565b9050600063660b88ee86848151811061186f577f4e487b7100000000000000000000000000000000000000000000000000000000600052603260045260246000fd5b6020908102919091010151604090810151609f5460a05492516118af9373ffffffffffffffffffffffffffffffffffffffff928316921690602401613acd565b6040516020818303038152906040529060e01b6020820180517bffffffffffffffffffffffffffffffffffffffffffffffffffffffff838183161783525050505090506000808373ffffffffffffffffffffffffffffffffffffffff168360405161191a9190613989565b6000604051808303816000865af19150503d8060008114611957576040519150601f19603f3d011682016040523d82523d6000602084013e61195c565b606091505b509150915081801561198657508051158061198657508080602001905181019061198691906137c7565b6119ec576040517f08c379a000000000000000000000000000000000000000000000000000000000815260206004820152601560248201527f496e697469616c697a6174696f6e204661696c6564000000000000000000000060448201526064016106fe565b609a6000898781518110611a29577f4e487b7100000000000000000000000000000000000000000000000000000000600052603260045260246000fd5b602090810291909101810151518252818101929092526040016000908120805460018101825590825291812090910180547fffffffffffffffffffffffff00000000000000000000000000000000000000001673ffffffffffffffffffffffffffffffffffffffff871617905588518591609b918b9089908110611ad6577f4e487b7100000000000000000000000000000000000000000000000000000000600052603260045260246000fd5b602002602001015160200151815260200190815260200160002060006101000a81548173ffffffffffffffffffffffffffffffffffffffff021916908373ffffffffffffffffffffffffffffffffffffffff1602179055508373ffffffffffffffffffffffffffffffffffffffff16888681518110611b7e577f4e487b7100000000000000000000000000000000000000000000000000000000600052603260045260246000fd5b602002602001015160200151898781518110611bc3577f4e487b7100000000000000000000000000000000000000000000000000000000600052603260045260246000fd5b6020026020010151600001517fad0f89174b94b4d25227bc39268656887cd3e0901b1d2e9f23da5e802e3b683e8b51604051611c0191815260200190565b60405180910390a4505050508080611c1890613ba4565b91505061172a565b5050505050565b6000611c31612880565b6000838152609c6020908152604080832073ffffffffffffffffffffffffffffffffffffffff8516845290915290205490915060ff1615611cf3576040517f08c379a0000000000000000000000000000000000000000000000000000000008152602060048201526024808201527f47616d65207265776172647320616c726561647920636c61696d65642062792060448201527f757365720000000000000000000000000000000000000000000000000000000060648201526084016106fe565b6000828152609a6020908152604080832054815173ffffffffffffffffffffffffffffffffffffffff861660248083019190915283518083039091018152604490910190925291810180517bffffffffffffffffffffffffffffffffffffffffffffffffffffffff167f1e83409a0000000000000000000000000000000000000000000000000000000017905290915b82811015611f6d576000858152609a60205260408120805483908110611dd2577f4e487b7100000000000000000000000000000000000000000000000000000000600052603260045260246000fd5b60009182526020909120015473ffffffffffffffffffffffffffffffffffffffff16905080611e5d576040517f08c379a000000000000000000000000000000000000000000000000000000000815260206004820152601760248201527f5175657374696f6e20446f6573206e6f7420657869737400000000000000000060448201526064016106fe565b6000808273ffffffffffffffffffffffffffffffffffffffff1685604051611e859190613989565b6000604051808303816000865af19150503d8060008114611ec2576040519150601f19603f3d011682016040523d82523d6000602084013e611ec7565b606091505b5091509150818015611ef1575080511580611ef1575080806020019051810190611ef191906137c7565b611f57576040517f08c379a000000000000000000000000000000000000000000000000000000000815260206004820152601060248201527f436c61696d47616d65204661696c65640000000000000000000000000000000060448201526064016106fe565b5050508080611f6590613ba4565b915050611d83565b5050506000918252609c6020908152604080842073ffffffffffffffffffffffffffffffffffffffff9093168452919052902080547fffffffffffffffffffffffffffffffffffffffffffffffffffffffffffffff00166001179055565b609a6020528160005260406000208181548110611fe757600080fd5b60009182526020909120015473ffffffffffffffffffffffffffffffffffffffff169150829050565b609f5473ffffffffffffffffffffffffffffffffffffffff16612031612880565b73ffffffffffffffffffffffffffffffffffffffff16146120ae576040517f08c379a000000000000000000000000000000000000000000000000000000000815260206004820152600b60248201527f61646d696e3a207775743f00000000000000000000000000000000000000000060448201526064016106fe565b73ffffffffffffffffffffffffffffffffffffffff811661212b576040517f08c379a000000000000000000000000000000000000000000000000000000000815260206004820152601660248201527f43616e6e6f74206265207a65726f20616464726573730000000000000000000060448201526064016106fe565b60a080547fffffffffffffffffffffffff00000000000000000000000000000000000000001673ffffffffffffffffffffffffffffffffffffffff83169081179091556040517fdbebfba65bd6398fb722063efc10c99f624f9cd8ba657201056af918a676d5ee90600090a250565b609f5473ffffffffffffffffffffffffffffffffffffffff166121bb612880565b73ffffffffffffffffffffffffffffffffffffffff1614612238576040517f08c379a000000000000000000000000000000000000000000000000000000000815260206004820152600b60248201527f61646d696e3a207775743f00000000000000000000000000000000000000000060448201526064016106fe565b6000818152609d602052604090205460ff16156122b1576040517f08c379a000000000000000000000000000000000000000000000000000000000815260206004820181905260248201527f47616d65277320547265617375727920486173206265656e20636c61696d656460448201526064016106fe565b6040805160048152602481018252602080820180517bffffffffffffffffffffffffffffffffffffffffffffffffffffffff167e3bdc74000000000000000000000000000000000000000000000000000000001790526000848152609a9091529182205490915b81811015612502576000848152609a60205260408120805483908110612367577f4e487b7100000000000000000000000000000000000000000000000000000000600052603260045260246000fd5b60009182526020909120015473ffffffffffffffffffffffffffffffffffffffff169050806123f2576040517f08c379a000000000000000000000000000000000000000000000000000000000815260206004820152601760248201527f5175657374696f6e20446f6573206e6f7420657869737400000000000000000060448201526064016106fe565b6000808273ffffffffffffffffffffffffffffffffffffffff168660405161241a9190613989565b6000604051808303816000865af19150503d8060008114612457576040519150601f19603f3d011682016040523d82523d6000602084013e61245c565b606091505b509150915081801561248657508051158061248657508080602001905181019061248691906137c7565b6124ec576040517f08c379a000000000000000000000000000000000000000000000000000000000815260206004820152601860248201527f436c61696d47616d655472656173757279204661696c6564000000000000000060448201526064016106fe565b50505080806124fa90613ba4565b915050612318565b5050506000908152609d6020526040902080547fffffffffffffffffffffffffffffffffffffffffffffffffffffffffffffff00166001179055565b6000612548612880565b6000848152609b602052604090205490915073ffffffffffffffffffffffffffffffffffffffff16806125d7576040517f08c379a000000000000000000000000000000000000000000000000000000000815260206004820152601760248201527f5175657374696f6e20446f6573206e6f7420657869737400000000000000000060448201526064016106fe565b6000633bcce78b84846040516024016125f1929190613a95565b6040516020818303038152906040529060e01b6020820180517bffffffffffffffffffffffffffffffffffffffffffffffffffffffff838183161783525050505090506000808373ffffffffffffffffffffffffffffffffffffffff168360405161265c9190613989565b6000604051808303816000865af19150503d8060008114612699576040519150601f19603f3d011682016040523d82523d6000602084013e61269e565b606091505b50915091508180156126c85750805115806126c85750808060200190518101906126c891906137c7565b61272e576040517f08c379a000000000000000000000000000000000000000000000000000000000815260206004820152600a60248201527f426574204661696c65640000000000000000000000000000000000000000000060448201526064016106fe565b50505050505050565b3361275760655473ffffffffffffffffffffffffffffffffffffffff1690565b73ffffffffffffffffffffffffffffffffffffffff16146127d4576040517f08c379a000000000000000000000000000000000000000000000000000000000815260206004820181905260248201527f4f776e61626c653a2063616c6c6572206973206e6f7420746865206f776e657260448201526064016106fe565b73ffffffffffffffffffffffffffffffffffffffff8116612877576040517f08c379a000000000000000000000000000000000000000000000000000000000815260206004820152602660248201527f4f776e61626c653a206e6577206f776e657220697320746865207a65726f206160448201527f646472657373000000000000000000000000000000000000000000000000000060648201526084016106fe565b610f2181612efc565b6000333014156128e457600080368080601f01602080910402602001604051908101604052809392919081815260200183838082843760009201919091525050505036015173ffffffffffffffffffffffffffffffffffffffff1691506128e79050565b50335b90565b600073ffffffffffffffffffffffffffffffffffffffff861661298f576040517f08c379a000000000000000000000000000000000000000000000000000000000815260206004820152602560248201527f4e61746976654d6574615472616e73616374696f6e3a20494e56414c49445f5360448201527f49474e455200000000000000000000000000000000000000000000000000000060648201526084016106fe565b60016129a261299d87613055565b6130df565b6040805160008152602081018083529290925260ff851690820152606081018690526080810185905260a0016020604051602081039080840390855afa1580156129f0573d6000803e3d6000fd5b5050506020604051035173ffffffffffffffffffffffffffffffffffffffff168673ffffffffffffffffffffffffffffffffffffffff1614905095945050505050565b6000612a3f8284613b5c565b9392505050565b33612a6660655473ffffffffffffffffffffffffffffffffffffffff1690565b73ffffffffffffffffffffffffffffffffffffffff1614610f21576040517f08c379a000000000000000000000000000000000000000000000000000000000815260206004820181905260248201527f4f776e61626c653a2063616c6c6572206973206e6f7420746865206f776e657260448201526064016106fe565b6000612b237f360894a13ba1a3210667c828492db98dca3e2076cc3735a920a3ca505d382bbc5473ffffffffffffffffffffffffffffffffffffffff1690565b9050612b2e8461312a565b600083511180612b3b5750815b15612b4c57612b4a848461321e565b505b7f4910fdfa16fed3260ed0e7147f7cc6da11a60208b5b9406d12a635614ffd9143805460ff16611c205780547fffffffffffffffffffffffffffffffffffffffffffffffffffffffffffffff0016600117815560405173ffffffffffffffffffffffffffffffffffffffff83166024820152612c42908690604401604080517fffffffffffffffffffffffffffffffffffffffffffffffffffffffffffffffe08184030181529190526020810180517bffffffffffffffffffffffffffffffffffffffffffffffffffffffff167f3659cfe60000000000000000000000000000000000000000000000000000000017905261321e565b5080547fffffffffffffffffffffffffffffffffffffffffffffffffffffffffffffff001681557f360894a13ba1a3210667c828492db98dca3e2076cc3735a920a3ca505d382bbc5473ffffffffffffffffffffffffffffffffffffffff838116911614612d32576040517f08c379a000000000000000000000000000000000000000000000000000000000815260206004820152602f60248201527f45524331393637557067726164653a207570677261646520627265616b73206660448201527f757274686572207570677261646573000000000000000000000000000000000060648201526084016106fe565b611c2085613347565b600054610100900460ff1680612d54575060005460ff16155b612de0576040517f08c379a000000000000000000000000000000000000000000000000000000000815260206004820152602e60248201527f496e697469616c697a61626c653a20636f6e747261637420697320616c72656160448201527f647920696e697469616c697a656400000000000000000000000000000000000060648201526084016106fe565b600054610100900460ff16158015612e1f57600080547fffffffffffffffffffffffffffffffffffffffffffffffffffffffffffff0000166101011790555b612e27613394565b8015610f2157600080547fffffffffffffffffffffffffffffffffffffffffffffffffffffffffffff00ff16905550565b60975460ff1615612ec5576040517f08c379a000000000000000000000000000000000000000000000000000000000815260206004820152600e60248201527f616c726561647920696e6974656400000000000000000000000000000000000060448201526064016106fe565b612ece81613481565b50609780547fffffffffffffffffffffffffffffffffffffffffffffffffffffffffffffff00166001179055565b6065805473ffffffffffffffffffffffffffffffffffffffff8381167fffffffffffffffffffffffff0000000000000000000000000000000000000000831681179093556040519116919082907f8be0079c531659141344cd1fd0a4f28419497f9722a3daafe3b4186f6b6457e090600090a35050565b60006040517f3d602d80600a3d3981f3363d3d373d3d3d363d7300000000000000000000000081528260601b60148201527f5af43d82803e903d91602b57fd5bf3000000000000000000000000000000000060288201526037816000f091505073ffffffffffffffffffffffffffffffffffffffff8116613050576040517f08c379a000000000000000000000000000000000000000000000000000000000815260206004820152601660248201527f455243313136373a20637265617465206661696c65640000000000000000000060448201526064016106fe565b919050565b6000604051806080016040528060438152602001613c3c60439139805160209182012083518483015160408087015180519086012090516130c29501938452602084019290925273ffffffffffffffffffffffffffffffffffffffff166040830152606082015260800190565b604051602081830303815290604052805190602001209050919050565b60006130ea60985490565b6040517f190100000000000000000000000000000000000000000000000000000000000060208201526022810191909152604281018390526062016130c2565b803b6131b8576040517f08c379a000000000000000000000000000000000000000000000000000000000815260206004820152602d60248201527f455243313936373a206e657720696d706c656d656e746174696f6e206973206e60448201527f6f74206120636f6e74726163740000000000000000000000000000000000000060648201526084016106fe565b7f360894a13ba1a3210667c828492db98dca3e2076cc3735a920a3ca505d382bbc80547fffffffffffffffffffffffff00000000000000000000000000000000000000001673ffffffffffffffffffffffffffffffffffffffff92909216919091179055565b6060823b6132ae576040517f08c379a000000000000000000000000000000000000000000000000000000000815260206004820152602660248201527f416464726573733a2064656c65676174652063616c6c20746f206e6f6e2d636f60448201527f6e7472616374000000000000000000000000000000000000000000000000000060648201526084016106fe565b6000808473ffffffffffffffffffffffffffffffffffffffff16846040516132d69190613989565b600060405180830381855af49150503d8060008114613311576040519150601f19603f3d011682016040523d82523d6000602084013e613316565b606091505b509150915061333e8282604051806060016040528060278152602001613cce6027913961353e565b95945050505050565b6133508161312a565b60405173ffffffffffffffffffffffffffffffffffffffff8216907fbc7cd75a20ee27fd9adebab32041f755214dbc6bffa90cc0225b39da2e5c2d3b90600090a250565b600054610100900460ff16806133ad575060005460ff16155b613439576040517f08c379a000000000000000000000000000000000000000000000000000000000815260206004820152602e60248201527f496e697469616c697a61626c653a20636f6e747261637420697320616c72656160448201527f647920696e697469616c697a656400000000000000000000000000000000000060648201526084016106fe565b600054610100900460ff1615801561347857600080547fffffffffffffffffffffffffffffffffffffffffffffffffffffffffffff0000166101011790555b612e2733612efc565b6040518060800160405280604f8152602001613c7f604f91398051602091820120825192820192909220604080518082018252600181527f310000000000000000000000000000000000000000000000000000000000000090840152805180840194909452838101919091527fc89efdaa54c0f20c7adf612882df0950f5a951637e0307cdcb4c672f298b8bc660608401523060808401524660a0808501919091528151808503909101815260c090930190528151910120609855565b6060831561354d575081612a3f565b82511561355d5782518084602001fd5b816040517f08c379a00000000000000000000000000000000000000000000000000000000081526004016106fe9190613a82565b803573ffffffffffffffffffffffffffffffffffffffff8116811461305057600080fd5b600082601f8301126135c5578081fd5b813567ffffffffffffffff8111156135df576135df613c0c565b61361060207fffffffffffffffffffffffffffffffffffffffffffffffffffffffffffffffe0601f84011601613b0d565b818152846020838601011115613624578283fd5b816020850160208301379081016020019190915292915050565b60006060828403121561364f578081fd5b6040516060810167ffffffffffffffff828210818311171561367357613673613c0c565b816040528293508435835260208501356020840152604085013591508082111561369c57600080fd5b506136a9858286016135b5565b6040830152505092915050565b6000602082840312156136c7578081fd5b612a3f82613591565b600080604083850312156136e2578081fd5b6136eb83613591565b91506136f960208401613591565b90509250929050565b60008060408385031215613714578182fd5b61371d83613591565b9150602083013567ffffffffffffffff811115613738578182fd5b613744858286016135b5565b9150509250929050565b600080600080600060a08688031215613765578081fd5b61376e86613591565b9450602086013567ffffffffffffffff811115613789578182fd5b613795888289016135b5565b9450506040860135925060608601359150608086013560ff811681146137b9578182fd5b809150509295509295909350565b6000602082840312156137d8578081fd5b81518015158114612a3f578182fd5b6000602082840312156137f8578081fd5b5035919050565b60008060408385031215613811578182fd5b823591506136f960208401613591565b60008060408385031215613833578182fd5b8235915060208084013567ffffffffffffffff80821115613852578384fd5b818601915086601f830112613865578384fd5b81358181111561387757613877613c0c565b8060051b613886858201613b0d565b8281528581019085870183870188018c10156138a0578889fd5b8893505b848410156138dd578035868111156138ba57898afd5b6138c88d8a838b010161363e565b845250600193909301929187019187016138a4565b50809750505050505050509250929050565b60008060408385031215613901578182fd5b82359150602083013567ffffffffffffffff811115613738578182fd5b60008060408385031215613930578182fd5b50508035926020909101359150565b60008151808452613957816020860160208601613b74565b601f017fffffffffffffffffffffffffffffffffffffffffffffffffffffffffffffffe0169290920160200192915050565b6000825161399b818460208701613b74565b9190910192915050565b600083516139b7818460208801613b74565b60609390931b7fffffffffffffffffffffffffffffffffffffffff000000000000000000000000169190920190815260140192915050565b600073ffffffffffffffffffffffffffffffffffffffff80861683528085166020840152506060604083015261333e606083018461393f565b6020808252825182820181905260009190848201906040850190845b81811015613a7657835173ffffffffffffffffffffffffffffffffffffffff1683529284019291840191600101613a44565b50909695505050505050565b602081526000612a3f602083018461393f565b604081526000613aa8604083018561393f565b905073ffffffffffffffffffffffffffffffffffffffff831660208301529392505050565b606081526000613ae0606083018661393f565b73ffffffffffffffffffffffffffffffffffffffff94851660208401529290931660409091015292915050565b604051601f82017fffffffffffffffffffffffffffffffffffffffffffffffffffffffffffffffe016810167ffffffffffffffff81118282101715613b5457613b54613c0c565b604052919050565b60008219821115613b6f57613b6f613bdd565b500190565b60005b83811015613b8f578181015183820152602001613b77565b83811115613b9e576000848401525b50505050565b60007fffffffffffffffffffffffffffffffffffffffffffffffffffffffffffffffff821415613bd657613bd6613bdd565b5060010190565b7f4e487b7100000000000000000000000000000000000000000000000000000000600052601160045260246000fd5b7f4e487b7100000000000000000000000000000000000000000000000000000000600052604160045260246000fdfe4d6574615472616e73616374696f6e2875696e74323536206e6f6e63652c616464726573732066726f6d2c62797465732066756e6374696f6e5369676e617475726529454950373132446f6d61696e28737472696e67206e616d652c737472696e672076657273696f6e2c6164647265737320766572696679696e67436f6e74726163742c627974657333322073616c7429416464726573733a206c6f772d6c6576656c2064656c65676174652063616c6c206661696c6564a164736f6c6343000804000a",
  "linkReferences": {},
  "deployedLinkReferences": {}
}